:020000040800F2
:100000002808002079020008FD2100086D20000862
:10001000F921000871040008B12300080000000065
:100020000000000000000000000000007122000835
:10003000B5040008000000006D220008C922000875
:10004000930200089302000893020008930200083C
:10005000930200089302000893020008930200082C
:10006000930200089302000893020008930200081C
:10007000930200089302000893020008930200080C
:1000800093020008930200089302000893020008FC
:100090007504000885040008930200089302000814
:1000A00093020008930200089302000893020008DC
:1000B00093020008930200089302000893020008CC
:1000C00093020008930200089302000893020008BC
:1000D00093020008930200089302000893020008AC
:1000E000930200089302000893020008930200089C
:1000F000930200089302000893020008930200088C
:10010000930200089302000893020008930200087B
:10011000930200089302000893020008930200086B
:10012000930200089302000893020008930200085B
:10013000930200089302000893020008930200084B
:1001400095040008A5040008930200089302000823
:10015000930200089302000893020008930200082B
:10016000930200089302000893020008930200081B
:1001700093020008930200089302000800000000A8
:1001800093020008930200089302000893020008FB
:1001900093020008930200089302000893020008EB
:1001A00000000000000000009302000800F002F8C8
:1001B00000F052F814A696E8000CB244B344DA45B5
:1001C00001D100F049F8BAE80F000FA696E8300018
:1001D000A5EB040504EB0607AAEB0704A7F101074A
:1001E0004FEA15154FEA3414A4F10104AC4201D3CF
:1001F00000F032F813F0010F18BFFB1A43F00103AF
:1002000000F001F8DBE718474C2400006C240000E4
:10021000103A24BF78C878C1FAD8520724BF30C832
:1002200030C144BF04680C60704700007047000094
:100230000023002400250026103A28BF78C1FBD8EF
:10024000520728BF30C148BF0B6070471FB502F08E
:10025000EBF91FBD10B510BD00F0D4F81146FFF743
:10026000F5FF02F05FF900F0F2F803B4FFF7F2FFD8
:1002700003BC00F0F5F80000094880470948004732
:10028000FEE7FEE7FEE7FEE7FEE7FEE7FEE7FEE746
:10029000FEE7FEE704480549054A064B70470000A3
:1002A0009D230008AD010008280200202808002036
:1002B000280400202804002053EA020C00F0698082
:1002C0002DE9F04B4FF00006002B1FBFB3FA83F56A
:1002D00003FA05F424FA05F65E4012BF1643B2FA9B
:1002E00082F502FA05F4C5F120051EBF22FA05FCCD
:1002F00044EA0C04203556EA044C4FEA144418BF73
:10030000641C4FF000084FF00009904271EB030CA1
:1003100039D3002919BFB1FA81F701FA07F6B0FA0B
:1003200080F700FA07F6C7F120071EBF20FA07FC86
:1003300046EA0C062037B6FBF4FCA7EB0507103F96
:1003400007F01F0BCBF120062CFA06F60CFA0BFB7C
:1003500044BFB3460026202FA4BF5E464FF0000BDB
:100360005BEA060C08BF4FF0010B19EB0B0948EBD9
:100370000608ABFB027C06FB02CC0BFB03CCC01BCC
:1003800071EB0C01C1E70B46024641464846BDE809
:10039000F08B13B5084318BF4FF0FF300146AFF3A1
:1003A0000080BDE81C4070474FF0000200B51346C6
:1003B00094469646203922BFA0E80C50A0E80C5085
:1003C000B1F12001BFF4F7AF090728BFA0E80C5036
:1003D00048BF0CC05DF804EB890028BF40F8042B2F
:1003E00008BF704748BF20F8022B11F0804F18BF9C
:1003F00000F8012B704770477047704700487047FE
:10040000100000207546FFF7F9FFAE46050069466B
:10041000534620F00700854618B020B5FFF73AFF95
:10042000BDE820404FF000064FF000074FF00008F5
:100430004FF0000BAC46ACE8C009ACE8C009ACE832
:10044000C009ACE8C00921F007018D46704710B51E
:100450000446AFF300802046BDE81040FFF705BF1B
:1004600001491820ABBEFEE72600020070470000DD
:10047000FFE7FEE780B540F27400C2F2000000F032
:100480005BF980BD80B540F27400C2F2000000F05C
:1004900053F980BD80B540F29C00C2F2000000F02C
:1004A0004BF980BD80B540F29C00C2F2000000F024
:1004B00043F980BD7047000072B6FFE7FEE7000019
:1004C00081B0009001B0704786B004900391029211
:1004D0000193049890F820008DF803009DF8030024
:1004E000012806D0FFE79DF80300022840F0E880CD
:1004F000FFE7039880B9FFE704980068C0688007A9
:1005000048B9FFE70499486A40F4001048620120A6
:100510008DF81700DDE00FE004980068006980079F
:1005200048B9FFE70499486A40F400104862012086
:100530008DF81700CDE0FFE704980068039900EB01
:100540000110D0F8B00100F0040002998860029810
:10055000806858B9FFE704980068039900EB011020
:10056000D0F8B001400D029908600AE004980068D4
:10057000039900EB0110D0F8B001C008029948605F
:10058000FFE704980068039900EB0110D0F8B00170
:1005900000F002000299C86004980068039900EB1B
:1005A0000110D0F8B40100F00F00082804D3FFE7D1
:1005B0000299082008610BE004980068039900EB99
:1005C0000110D0F8B40100F00F0002990861FFE7B4
:1005D00004980068039900EB0110D0F8B40180B2D0
:1005E000000A0299886104980068039900EB0110E1
:1005F000D0F8B401000C029948610498006803998E
:1006000000EB0110D0F8B801019908700498006857
:10061000039900EB0110D0F8B801000A0199487065
:1006200004980068039900EB0110D0F8B801000CA1
:100630000199887004980068039900EB0110D0F8C4
:10064000B801000E0199C87004980068039900EB86
:100650000110D0F8BC010199087104980068039951
:1006600000EB0110D0F8BC01000A01994871049810
:100670000068039900EB0110D0F8BC01000C01994F
:10068000887104980068039900EB0110D0F8BC0150
:10069000000E0199C871039838B9FFE70498016802
:1006A000C86840F02000C86006E004980168086946
:1006B00040F020000861FFE700208DF8170008E0F7
:1006C0000499486A40F48020486201208DF81700A0
:1006D000FFE79DF8170006B07047000082B0019058
:1006E000019890F820008DF803009DF80300012880
:1006F00005D0FFE79DF80300022819D1FFE7019814
:10070000006840688007002804D5FFE704208DF8C2
:1007100003000CE00198006800688007002804D5F9
:10072000FFE703208DF8030000E0FFE7FFE7FFE7A6
:100730009DF8030002B0704780B58AB00990002090
:100740000890099800684069079009980068406817
:100750000690099800688068059009980068C0684C
:1007600004900998006800690390099800688069FE
:1007700002909DF81C00C007002800F09480FFE75D
:100780009DF81400C00758B3FFE7099801680120DD
:1007900088609DF814008007002804D5FFE70998B9
:1007A00000F014FC1BE09DF814004007002805D55C
:1007B000FFE7089840F4006008900FE09DF81400EF
:1007C0000007002805D5FFE7089840F480500890FE
:1007D00003E0099800F0F6FBFFE7FFE7FFE7FFE71C
:1007E0009DF81500C00760B3FFE7099801684FF452
:1007F000807088609DF815008007002804D5FFE709
:10080000099800F0EBFB1BE09DF81500400700285D
:1008100005D5FFE7089840F4005008900FE09DF8D8
:1008200015000007002805D5FFE7089840F4804030
:10083000089003E0099800F0CDFBFFE7FFE7FFE732
:10084000FFE79DF81600C00760B3FFE7099801684D
:100850004FF4803088609DF816008007002804D58A
:10086000FFE7099800F0C2FB1BE09DF81600400767
:10087000002805D5FFE7089840F4004008900FE0F5
:100880009DF816000007002805D5FFE7089840F4FA
:100890008030089003E0099800F0A4FBFFE7FFE731
:1008A000FFE7FFE7FFE79DF81C000007002810D5D1
:1008B000FFE79DF81000C006002809D5FFE708985B
:1008C00040F400700890099801681020C860FFE7A4
:1008D000FFE79DF81C00400700280FD5FFE79DF8B3
:1008E00010000007002808D5FFE7099801680820D4
:1008F000C860099800F0E0FAFFE7FFE79DF81C00E8
:10090000800700280BD5FFE709980068C0688007BA
:1009100020B1FFE7099800F0D3FAFFE7FFE79DF861
:100920001C004006002810D5FFE79DF80C00C0060B
:10093000002809D5FFE7089840F4806008900998DE
:10094000016810200861FFE7FFE79DF81C008006A2
:1009500000280FD5FFE79DF80C000007002808D5F8
:10096000FFE70998016808200861099800F0D8FAA3
:10097000FFE7FFE79DF81C00C00600280BD5FFE746
:10098000099800680069800720B1FFE7099800F026
:10099000CBFAFFE7FFE79DF81E00800700280FD580
:1009A000FFE79DF81800C006002808D5FFE7099862
:1009B000016810204860099800F0BAFAFFE7FFE7E5
:1009C0009DF81E00C00778B1FFE79DF818000007EA
:1009D000002808D5FFE709980168082048600998B1
:1009E00000F008FBFFE7FFE79DF81D000006002868
:1009F00040F18D80FFE79DF818004007002840F186
:100A00008180FFE79DF81D00C00750B1FFE79DF80A
:100A10000800C00728B1FFE7089840F001000890DF
:100A2000FFE79DF81D00800700280BD5FFE79DF824
:100A300008008007002805D5FFE7089840F002006D
:100A40000890FFE79DF81D00400700280BD5FFE741
:100A50009DF808004007002805D5FFE7089840F0FA
:100A600004000890FFE79DF81D000007002848D506
:100A7000FFE79DF8080010F0700F42D0FFE70298E2
:100A800000F0700001460191102814D0FFE7019892
:100A9000202815D0FFE70198302816D0FFE70198ED
:100AA000402817D0FFE70198502818D0FFE7019899
:100AB000602819D01DE0089840F00800089019E05F
:100AC000089840F01000089014E0089840F02000CA
:100AD00008900FE0089840F0400008900AE008985D
:100AE00040F08000089005E0089840F4807008907D
:100AF00000E0FFE709980168886920F070008861CC
:100B0000FFE7FFE70998016804204860FFE70898BD
:100B100048B1FFE7089A0999486A10434862099862
:100B2000FFF7CEFCFFE70AB080BD000080B584B0BF
:100B30000290029820B9FFE701208DF80F00E0E055
:100B4000029890F8200020B9FFE7029800F0DEF844
:100B5000FFE702980168086840F00100086000F0B3
:100B60005DFC0190FFE7029800684068C007A8B9E3
:100B7000FFE700F053FC0199401A0B280DD3FFE763
:100B80000299486A40F4003048620299052081F8D1
:100B9000200001208DF80F00B3E0E4E7029801681F
:100BA000086820F00200086000F038FC0190FFE7C0
:100BB0000298006840688007002815D5FFE700F01C
:100BC0002DFC0199401A0B280DD3FFE70299486AC2
:100BD00040F4003048620299052081F8200001208D
:100BE0008DF80F008DE0E3E70298007E012807D121
:100BF000FFE702980168086840F08000086006E09E
:100C000002980168086820F080000860FFE70298F9
:100C1000407E012807D1FFE702980168086840F08C
:100C20004000086006E002980168086820F0400073
:100C30000860FFE70298807E012807D1FFE702984D
:100C40000168086840F02000086006E0029801682A
:100C5000086820F020000860FFE70298C07E0128A5
:100C600007D1FFE702980168086820F010000860CB
:100C700006E002980168086840F010000860FFE78D
:100C80000298007F012807D1FFE7029801680868F1
:100C900040F00800086006E002980168086820F04B
:100CA00008000860FFE70298407F012807D1FFE7AE
:100CB00002980168086840F00400086006E00298A5
:100CC0000168086820F004000860FFE7029B1968CB
:100CD0005A689868D3F80CC040EA0C00D3F810C0EA
:100CE00040EA0C005B691843013A1043C86102995D
:100CF00000204862029A012182F820108DF80F002E
:100D0000FFE79DF80F0004B080BD000080B592B0F1
:100D10001190002010900F900E900D900C90119853
:100D2000006846F20041C4F20001884252D1FFE758
:100D300040F27000C2F200000168013101600068F9
:100D4000012812D1FFE7FFE700200B9043F6400097
:100D5000C4F20200016841F000710160006800F017
:100D600000700B900B98FFE7FFE7FFE700200A9069
:100D700043F63000C4F20200016841F0080101604E
:100D8000006800F008000A900A98FFE703200C9022
:100D900002210D9101210E910F900920109040F633
:100DA0000040C4F202000CA900F028F914200490BD
:100DB00000220592114600F0C9FB049800F0BCFB2C
:100DC000059A15200690114600F0C0FB069800F029
:100DD000B3FB6EE01198006846F60001C4F2000112
:100DE000884265D1FFE7FFE70020099043F6400005
:100DF000C4F20200016841F080610160006800F007
:100E0000806009900998FFE740F27000C2F200008C
:100E10000168013101600068012812D1FFE7FFE796
:100E20000020089043F64000C4F20200016841F03F
:100E300000710160006800F0007008900898FFE7FA
:100E4000FFE7FFE70020079043F63000C4F20200FE
:100E5000016841F002010160006800F002000790A3
:100E60000798FFE74FF440500C9002200D900020AF
:100E700002900E9003200F900920109040F2004045
:100E8000C4F202000CA900F0B9F8029A40200190C7
:100E9000114600F05BFB019800F04EFB029A4120E6
:100EA0000390114600F052FB039800F045FBFFE76A
:100EB000FFE712B080BD000081B0009001B0704724
:100EC00080B58CB00B900B9840F27401C2F2000117
:100ED000884208D0FFE70B9840F29C01C2F2000163
:100EE00088421AD1FFE70220089000200490059064
:100EF0000421069107900B98FFF7F0FB60B1FFE724
:100F00000B98002104AA02AB0193FFF7DDFA0199C7
:100F1000049801F0AFFAFFE7FFE70CB080BD0000D6
:100F200081B0009001B0704781B0009001B070476F
:100F300081B0009001B0704780B584B002900298F3
:100F400090F8200001282FD1FFE70299022081F8B4
:100F5000200002980168086820F00100086000F095
:100F60005DFA0190FFE7029800684068C007A8B1E9
:100F7000FFE700F053FA0199401A0B280DD3FFE761
:100F80000299486A40F4003048620299052081F8CD
:100F9000200001208DF80F000FE0E4E70299002007
:100FA00048628DF80F0008E00299486A40F400207A
:100FB000486201208DF80F00FFE79DF80F0004B094
:100FC00080BD000081B0009001B0704781B00090FA
:100FD00001B0704781B0009001B0704781B00090BF
:100FE00001B0704781B0009001B0704781B00090AF
:100FF00001B0704781B0009001B0704790B00F9081
:101000000E9100200C900B900A900D90FFE70D9828
:101010000F2800F2E881FFE70D99012088400C902D
:101020000E9800680C9908400B900B980C99884218
:1010300040F0D481FFE70E98406800F003000128DB
:1010400007D0FFE70E98406800F0030002282FD178
:10105000FFE70F9880680A900D984100032000FA7E
:1010600001F10A9888430A900E98C0680D994900CA
:1010700000FA01F10A9808430A900A980F998860CB
:101080000F9840680A900D99012000FA01F10A9822
:1010900088430A900E984068C0F300100D9900FA3A
:1010A00001F10A9808430A900A980F994860FFE7EF
:1010B0000E98406800F00300032818D0FFE70F984F
:1010C000C0680A900D984100032000FA01F10A98C7
:1010D00088430A900E9880680D99490000FA01F142
:1010E0000A9808430A900A980F99C860FFE70E987B
:1010F000406800F00300022826D1FFE70F980D9901
:101100006FF0030202EA51010844006A0A900D9848
:1011100000F0070081000F2000FA01F10A988843CF
:101120000A900E9800690D9901F00701890000FAF4
:1011300001F10A9808430A900A980F990D9B02EA58
:10114000530211440862FFE70F9800680A900D9857
:101150004100032000FA01F10A9888430A900E9892
:10116000406800F003000D99490000FA01F10A9867
:1011700008430A900A980F9908600E9880798007B2
:10118000002800F02A81FFE7FFE70020099043F6DE
:101190004400C4F20200016841F48041016000682B
:1011A00000F4804009900998FFE70D9820F00300B3
:1011B00043F60801C4F2010140580A900D9800F06E
:1011C000030081000F2000FA01F10A9888430A9079
:1011D0000F980021C4F20201884203D1FFE70020EA
:1011E00008907AE00F9840F20041C4F20201884270
:1011F00003D1FFE7012007906CE00F9840F6000153
:10120000C4F20201884203D1FFE7022006905EE0AB
:101210000F9840F60041C4F20201884203D1FFE773
:101220000320059050E00F9841F20001C4F2020142
:10123000884203D1FFE70420049042E00F9841F276
:101240000041C4F20201884203D1FFE70520039068
:1012500034E00F9841F60001C4F20201884203D144
:10126000FFE70620029026E00F9841F60041C4F205
:101270000201884203D1FFE70720019018E00F9890
:1012800042F20001C4F20201884203D1FFE70820C4
:1012900000900AE00F9942F20042C4F202020A20D2
:1012A000914208BF09200090FFE700980190FFE7F6
:1012B00001980290FFE702980390FFE703980490DB
:1012C000FFE704980590FFE705980690FFE706986A
:1012D0000790FFE707980890FFE70898C0B20D99BC
:1012E00001F00301890000FA01F10A9808430A900D
:1012F0000A980D9921F0030143F60802C4F2010295
:10130000885043F60840C4F2010000680A900B9927
:101310000A9888430A900E988079C006002805D55F
:10132000FFE70B990A9808430A90FFE70A9843F6EB
:101330000841C4F20101086043F60C40C4F2010008
:1013400000680A900B990A9888430A900E98807951
:101350008006002805D5FFE70B990A9808430A90F4
:10136000FFE70A9843F60C41C4F20101086043F616
:101370000440C4F2010000680A900B990A9888435F
:101380000A900E9880798007002805D5FFE70B9911
:101390000A9808430A90FFE70A9843F60441C4F20A
:1013A0000101086043F60040C4F2010000680A90A1
:1013B0000B990A9888430A900E988079C00728B143
:1013C000FFE70B990A9808430A90FFE70A9843F64B
:1013D0000041C4F201010860FFE7FFE7FFE70D9855
:1013E00001300D9013E610B07047000082B00190FC
:1013F000ADF802108DF801209DF8010028B1FFE73B
:10140000BDF802000199886105E0BDF80200000402
:1014100001998861FFE702B07047000040F2242084
:10142000C2F200000068704740F20400C2F20000FF
:10143000027840F22421C2F20001086810440860DA
:101440007047000080B543F60041C4F2020108680D
:1014500040F400700860086840F480600860086824
:1014600040F480700860032000F08AF80F2000F03C
:1014700005F800F03BF8002080BD000080B582B088
:10148000009040F20000C2F20000006840F2040147
:10149000C2F200010A784FF47A71B1FBF2F1B0FBAD
:1014A000F1F000F0DBFD20B1FFE701208DF807002F
:1014B00018E000980F280DD8FFE700994FF0FF3093
:1014C000002200F043F8009840F20801C2F2000147
:1014D000086003E001208DF8070003E000208DF88C
:1014E0000700FFE79DF8070002B080BD82B0FFE76C
:1014F0000020019043F64400C4F20200016841F468
:1015000080410160006800F4804001900198FFE78D
:10151000FFE70020009043F64000C4F2020001689B
:1015200041F080510160006800F080500090009808
:10153000FFE702B07047000080B582B08DF8070069
:101540009DF9070000F036FF02B080BD80B586B07F
:101550008DF81700049103920020029000F042FFE2
:1015600002909DF91700019002980499039A00F0E7
:1015700047FE0146019800F03DFF06B080BD000027
:1015800080B582B00190019800F056FF02B080BD96
:1015900080B584B000200290FFE70020019043F660
:1015A0004000C4F20200016841F08051016000680F
:1015B00000F0805001900198FFE74021C4F20E2115
:1015C00001200860FFF72AFF0290FFE747F20400BE
:1015D000C4F20000006800F48030B0F5803F0DD008
:1015E000FFE7FFF71BFF0299401AB0F57A7F04D995
:1015F000FFE703208DF80F0025E0E7E74421C4F260
:101600000E2101200860FFF709FF0290FFE747F273
:101610000400C4F20000006800F40030B0F5003FA0
:101620000DD0FFE7FFF7FAFE0299401AB0F57A7F76
:1016300004D9FFE703208DF80F0004E0E7E700205E
:101640008DF80F00FFE79DF80F0004B080BD00008B
:1016500080B584B002900191029820B9FFE7012083
:101660008DF80F0021E1019843F60041C4F2020118
:10167000096801F00F01884212D9FFE7019943F68A
:101680000040C4F202000170006800F00F000199F0
:10169000884204D0FFE701208DF80F0005E1FFE745
:1016A00002980078800700282AD5FFE70298007882
:1016B0004007002809D5FFE743F60801C4F20201FC
:1016C000086840F4E0500860FFE7029800780007DF
:1016D000002809D5FFE743F60801C4F202010868B3
:1016E00040F460400860FFE743F60801C4F20201DD
:1016F000086820F0F000029A926810430860FFE743
:1017000002980078C00700286ED0FFE70298406872
:10171000012811D1FFE743F60000C4F2020000687F
:1017200000F400310020B0EB514F04D1FFE701205D
:101730008DF80F00B9E02CE002984068022805D02F
:10174000FFE702984068032811D1FFE743F6000045
:10175000C4F20200006800F000710020B0EB516F8D
:1017600004D1FFE701208DF80F009EE010E043F662
:101770000000C4F20200006800F002010020B0EB9B
:10178000510F04D1FFE701208DF80F008DE0FFE736
:10179000FFE743F60801C4F20201086820F00300E5
:1017A000029A526810430860FFF738FE0090FFE786
:1017B00043F60800C4F20200006800F00C00029931
:1017C0004968B0EB810F0ED0FFE7FFF727FE0099C5
:1017D000401A41F28931884204D3FFE703208DF893
:1017E0000F0062E0E4E7FFE7019843F60041C4F22E
:1017F0000201096801F00F01884212D2FFE7019946
:1018000043F60040C4F202000170006800F00F00CF
:101810000199884204D0FFE701208DF80F0044E0D1
:10182000FFE702980078400700280CD5FFE743F651
:101830000801C4F20201086820F4E050029AD2685C
:1018400010430860FFE702980078000700280DD5D4
:10185000FFE743F60801C4F20201086820F4604083
:10186000029A126940EAC2000860FFE700F022F81D
:1018700043F60801C4F202010968C9B20A0942F23A
:101880004261C0F60001895CC84040F20001C2F22A
:101890000001086040F20800C2F200000068FFF793
:1018A000EDFD00208DF80F00FFE79DF80F0004B05C
:1018B00080BD000080B586B00020059004900390A4
:1018C000029043F60800C4F20200006800F00C0029
:1018D0000146019140B1FFE7019804280AD0FFE7D3
:1018E000019808280CD04FE042F20040C0F2F4000A
:1018F00002904FE047F64000C0F27D10029049E0B0
:1019000043F60400C4F20200016801F03F010591B2
:1019100000684002002813D5FFE743F60400C4F234
:1019200002000068C0F3881047F64001C0F27D1144
:10193000A0FB0101059A0023FEF7BEFC049012E013
:1019400043F60400C4F202000068C0F3881042F2BB
:101950000041C0F2F401A0FB0101059A0023FEF74B
:10196000ABFC0490FFE743F60400C4F202000068F9
:1019700000F44031022000EBD13003900498039929
:10198000B0FBF1F0029005E042F20040C0F2F4003A
:101990000290FFE7029806B080BD000080B586B0D7
:1019A0000490049820B9FFE701208DF8170050E358
:1019B00004980078C007002800F0A580FFE743F6F0
:1019C0000800C4F20200006800F00C00042813D0E4
:1019D000FFE743F60800C4F20200006800F00C00C4
:1019E00008281ED1FFE743F60400C4F20200006895
:1019F0004002002815D5FFE743F60000C4F20200BC
:101A0000006800F400310020B0EB514F08D0FFE730
:101A10000498406820B9FFE701208DF8170018E30B
:101A200070E0FFE704984068B0F5803F09D1FFE718
:101A300043F60001C4F20201086840F480300860F7
:101A400020E004984068B0F5A02F0DD1FFE743F6E1
:101A50000001C4F20201086840F4802008600868B0
:101A600040F4803008600CE043F60001C4F202014B
:101A7000086820F480300860086820F4802008603E
:101A8000FFE7FFE7FFE704984068E8B1FFE7FFF7EB
:101A9000C5FC0390FFE743F60000C4F202000068B3
:101AA00000F400310020B0EB514F0CD1FFE7FFF7FD
:101AB000B5FC0399401A652804D3FFE703208DF88D
:101AC0001700C6E2E7E71CE0FFF7A8FC0390FFE77A
:101AD00043F60000C4F20200006800F40031002068
:101AE000B0EB514F0CD0FFE7FFF798FC0399401A79
:101AF000652804D3FFE703208DF81700A9E2E7E784
:101B0000FFE7FFE7FFE7049800788007002840F12F
:101B10009680FFE743F60800C4F20200006810F068
:101B20000C0F13D0FFE743F60800C4F20200006870
:101B300000F00C0008282CD1FFE743F60400C4F2A3
:101B4000020000684002002823D4FFE743F60000AB
:101B5000C4F20200006800F002010020B0EB510F57
:101B600009D0FFE70498C068012804D0FFE70120EE
:101B70008DF817006DE243F60001C4F20201086817
:101B800020F0F800049A126940EAC2000860FFE7FA
:101B900054E00498C06870B3FFE70021C4F2472105
:101BA00001200860FFF73AFC0390FFE743F60000CE
:101BB000C4F20200006800F002010020B0EB510FF7
:101BC0000CD1FFE7FFF72AFC0399401A032804D33E
:101BD000FFE703208DF817003BE2E7E743F600013B
:101BE000C4F20201086820F0F800049A126940EA81
:101BF000C200086021E00021C4F2472100200860F3
:101C0000FFF70CFC0390FFE743F60000C4F202006C
:101C1000006800F002010020B0EB510F0CD0FFE78C
:101C2000FFF7FCFB0399401A032804D3FFE70320C6
:101C30008DF817000DE2E7E7FFE7FFE7FFE70498FD
:101C40000078000700284BD5FFE70498406918B3D7
:101C5000FFE740F68061C4F2472101200860FFF7EA
:101C6000DDFB0390FFE743F67400C4F20200006856
:101C700000F002010020B0EB510F0CD1FFE7FFF79D
:101C8000CDFB0399401A032804D3FFE703208DF806
:101C90001700DEE1E7E722E040F68061C4F2472169
:101CA00000200860FFF7BAFB0390FFE743F67400DB
:101CB000C4F20200006800F002010020B0EB510FF6
:101CC0000CD0FFE7FFF7AAFB0399401A032804D3BF
:101CD000FFE703208DF81700BBE1E7E7FFE7FFE729
:101CE000049800784007002840F1CE80FFE70020EC
:101CF0008DF8070043F64000C4F202000068C000FF
:101D0000002815D4FFE7FFE70020009043F64000CD
:101D1000C4F20200016841F080510160006800F0E7
:101D2000805000900098FFE701208DF80700FFE742
:101D300047F20000C4F200000068C005002822D469
:101D4000FFE747F20001C4F20001086840F4807028
:101D50000860FFF763FB0390FFE747F20000C4F25F
:101D600000000068C00500280CD4FFE7FFF756FB11
:101D70000399401A032804D3FFE703208DF81700C6
:101D800067E1EAE7FFE7FFE704988068012809D1E7
:101D9000FFE743F67001C4F20201086840F0010059
:101DA00008601FE00498806805280DD1FFE743F61E
:101DB0007001C4F20201086840F00400086008687D
:101DC00040F0010008600CE043F67001C4F202012B
:101DD000086820F001000860086820F0040008602E
:101DE000FFE7FFE7FFE704988068F8B1FFE7FFF738
:101DF00015FB0390FFE743F67000C4F20200006891
:101E000000F002010020B0EB510F0ED1FFE7FFF709
:101E100005FB0399401A41F28931884204D3FFE758
:101E200003208DF8170014E1E5E71EE0FFF7F6FA4E
:101E30000390FFE743F67000C4F20200006800F070
:101E400002010020B0EB510F0ED0FFE7FFF7E6FADA
:101E50000399401A41F28931884204D3FFE70320F5
:101E60008DF81700F5E0E5E7FFE79DF8070001288A
:101E700009D1FFE743F64001C4F20201086820F0EF
:101E800080500860FFE7FFE704988069002800F0B1
:101E9000DC80FFE743F60800C4F20200006800F0AF
:101EA0000C00082800F08580FFE70498806902286C
:101EB0005CD1FFE76021C4F2472100200860FFF7F2
:101EC000ADFA0390FFE743F60000C4F20200006899
:101ED00000F000710020B0EB516F0CD0FFE7FFF76E
:101EE0009DFA0399401A032804D3FFE703208DF8D5
:101EF0001700AEE0E7E70499C869D1F820C04B6A43
:101F00008A6A40EA0C0040EA8310D2034FF6FF735E
:101F10009A43A2F580321043C96A40EA016043F651
:101F20000401C4F2020108606021C4F247210120CB
:101F30000860FFF773FA0390FFE743F60000C4F26E
:101F40000200006800F000710020B0EB516F0CD16E
:101F5000FFE7FFF763FA0399401A032804D3FFE76A
:101F600003208DF8170074E0E7E721E06021C4F258
:101F7000472100200860FFF751FA0390FFE743F67E
:101F80000000C4F20200006800F000710020B0EB15
:101F9000516F0CD0FFE7FFF741FA0399401A03286D
:101FA00004D3FFE703208DF8170052E0E7E7FFE7CF
:101FB0004AE004988069012804D1FFE701208DF8E8
:101FC000170046E043F60400C4F2020000680290E5
:101FD00004988069012831D0FFE7029800F480005E
:101FE0000499C969884229D1FFE7029800F03F00AF
:101FF0000499096A884221D1FFE7029847F6C07127
:1020000008400499496AB0EB811F17D1FFE7029895
:1020100000F440300499896AC9034FF6FF72914376
:10202000A1F58031884209D1FFE7029800F0706085
:102030000499C96AB0EB016F04D0FFE701208DF865
:10204000170006E0FFE7FFE7FFE700208DF8170025
:10205000FFE79DF8170006B080BD000080B582B094
:102060000190019800F006F902B080BDFFE7FEE79D
:1020700080B582B040F27400C2F20000009046F2D7
:102080000041C4F200010160092141600021019179
:102090008160C1604FF4803202614FF4801242616E
:1020A000017641768176C17601774177FEF73EFD74
:1020B00018B1FFE7FEF700FAFFE702B080BD0000AD
:1020C00080B582B040F29C00C2F20000009046F65B
:1020D0000001C4F200010160092141600021019169
:1020E0008160C1604FF4803202614FF4801242611E
:1020F000017641768176C17601774177FEF716FD4C
:1021000018B1FFE7FEF7D8F9FFE702B080BD000085
:1021100080B58EB000200D900C900B900A90099025
:10212000FFE70020089043F63000C4F20200016887
:1021300041F001010160006800F00100089008987A
:10214000FFE7FFE70020079043F63000C4F20200EB
:10215000016841F008010160006800F00800079084
:102160000798FFE7FFE70020069043F63000C4F22F
:102170000200016841F020010160006800F02000C9
:1021800006900698FFE7FFE70020059043F6300031
:10219000C4F20200016841F080010160006800F0B3
:1021A000800005900598FFE7FFE70020049043F6C4
:1021B0003000C4F20200016841F0020101600068D1
:1021C00000F0020004900498FFE741F20040C4F2DE
:1021D000020003900121019100220292FFF706F90B
:1021E000019A0299039809920A920B910C9109A9FC
:1021F000FEF704FF0EB080BDFFE7FEE7FFE7FEE756
:1022000088B0079006910592079800F007000490A7
:102210000498C0F10700052803D3FFE704200190CC
:1022200004E00498C0F107000190FFE701980390D3
:1022300004980430062803D8FFE70020009003E04C
:10224000049803380090FFE70098029006980399DD
:10225000012202FA01F101390840029B98400599D8
:102260009A40013A1140084308B070477047000097
:102270007047000080B582B0009000980138B0F13E
:10228000807F03D3FFE70120019019E00098013817
:102290004EF21401CEF2000108604FF0FF300F2122
:1022A00000F0A8F84EF21801CEF2000100200860FC
:1022B0004EF21002CEF20002072111600190FFE7FA
:1022C000019802B080BD000080B5FFF7ADF880BD79
:1022D00080B594B008A83021FEF766F8002007907A
:1022E0000690059004900390FFE70020029043F6CB
:1022F0004000C4F20200016841F0805101600068B2
:1023000000F0805002900298FFE7FFE70020019064
:1023100047F20000C4F20000016841F4404101604E
:10232000006800F4404001900198FFE70120089008
:102330004FF48030099002200E904FF480010F91ED
:102340000F211091D821119112900420139008A808
:10235000FFF724FB18B1FFE7FEF7AEF8FFE7FFF742
:1023600017F918B1FFE7FEF7A7F8FFE70F20039072
:1023700002200490002005904FF4A05006904FF4E6
:102380008050079003A80521FFF762F918B1FFE715
:10239000FEF792F8FFE714B080BD00004EF68851BA
:1023A000CEF20001086840F4700008607047000039
:1023B000FFE7FEE781B08DF803009DF903000028D8
:1023C0000ED4FFE79DF9031001F01F020120904099
:1023D0004A094EF20011CEF2000141F82200FFE757
:1023E00001B070474EF60C50CEF200000068C0F30A
:1023F0000220704782B08DF8070000919DF9070018
:1024000000280AD4FFE7009800019DF907104EF25A
:102410000042CEF2000288540BE0009800019DF8C3
:10242000071001F00F014EF61452CEF2000288544C
:10243000FFE702B07047000083B00290029800F0FE
:10244000070000904EF60C51CEF200010868019092
:1024500001984FF6FF02104001900198009A40EA5F
:1024600002200022C0F2FA52104301900198086045
:1024700003B0704780B584B00390029100200190B2
:102480000398A0F201200146009107283FD8009947
:10249000DFE801F0040A11181F262D3540F2C400B0
:1024A000C2F20000019033E040F2C400C2F200002A
:1024B0002C3001902CE040F2C400C2F200005830F1
:1024C000019025E040F2C400C2F200008430019087
:1024D0001EE040F2C400C2F20000B030019017E0EC
:1024E00040F2C400C2F20000DC30019010E040F283
:1024F000C400C2F2000000F58470019008E040F2D0
:10250000C400C2F2000000F59A70019000E007E0FC
:10251000019828B1FFE70198029900F019F8FFE748
:1025200004B080BD80B582B000200190FEF78AFF24
:10253000FFF7CEFEFFF7ECFDFFF79AFDFFF7C0FDBA
:1025400040F27400C2F20000FEF7F6FCFFE7FEE77F
:1025500083B0029001914FF48050ADF802004FF427
:102560000050ADF800000298806A32280BD8FFE7CF
:1025700001980178407840EA012002990881029987
:10258000088988814AE00299088948810198017880
:10259000407840EA01200299088101988178C0784A
:1025A00040EA0120029948800299488808800198F1
:1025B0000179407940EA012000B24FF0993150FB97
:1025C00001F1480800EBD170029988800198807968
:1025D00002998871029908894989401AB0F5805F8B
:1025E00005DDFFE702990869013808610DE00299ED
:1025F00008894989401A10F5805F05DAFFE70299DA
:10260000086901300861FFE7FFE702990A69088954
:1026100000EB42308A89801A4861FFE70299886A94
:102620000130886203B07047F1EE100A4FF6FF7177
:10263000C0F2C03120EA010040F04070E1EE100A23
:1026400070470000000000000000010203040607BC
:102650000809000078260008000000201000000093
:10266000100200088826000810000020180800004A
:1026700030020008000000000024F4000100000007
:08268000100000000000000042
:04000005080001AD41
:00000001FF
